:100000000C9443010C948A010C948A010C948A018B
:100010000C948A010C948A010C948A010C948A0134
:100020000C948A010C948A010C94C0180C949419B5
:100030000C94DD130C948A010C948A010C948A01AF
:100040000C948A010C948A010C948A010C948A0104
:100050000C948A010C9434140C948A010C948A0137
:100060000C948A010C948A010C948A010C948A01E4
:100070000C948A010C948A010C948A010C948A01D4
:100080000C948A010C948A010C948A010C948A01C4
:100090000C948A010C948A010C948A010C948A01B4
:1000A0000C948A010C948A010C948A01687474700F
:1000B000733A2F2F716D6B2E666D2F0A00514D4BC9
:1000C00020697320746865206265737420746869A0
:1000D0006E67206576657221003A003B003C003D6A
:1000E000003E0044003F0040004100420043004504
:1000F0000000000000000000002A2B280000000083
:1001000000000000000000000000000029000000C6
:10011000002C1E3420212224342627252E362D376C
:1001200038271E1F202122232425263333362E373D
:10013000381F0405060708090A0B0C0D0E0F1011D5
:1001400012131415161718191A1B1C1D2F313023E2
:100150002D350405060708090A0B0C0D0E0F1011AA
:1001600012131415161718191A1B1C1D2F313035B0
:100170004C00000000000000000000000000000033
:10018000000000000000000000000000000000006F
:1001900000000000007E0F00D4FFFFFFC70000003A
:1001A0007812036D0069006C006C006900700061DA
:1001B00000640000000C034A00690072006F0075C3
:1001C0000000000403090409023B00020100A0FA38
:1001D00009040000010301010009211101000122AD
:1001E00040000705810308000A090401000103001B
:1001F00000000921110100012232000705820320BD
:10020000000A1201100100000008EDFE1B1A010097
:100210000102000105010980A101850319012AB726
:1002200000150126B700950175108100C0050C0965
:1002300001A101850419012AA002150126A0029539
:100240000175108100C005010906A101050719E02B
:1002500029E71500250195087501810295017508AA
:1002600081010507190029FF150026FF0095067575
:100270000881000508190129059505750191029568
:100280000175039101C011241FBECFEFDAE0DEBF7C
:10029000CDBF04B603FE27C08091240290912502B1
:1002A000A0912602B09127028730904BA740B04B17
:1002B000D1F410922402109225021092260210927C
:1002C000270214BE84B7877F84BF0FB6F894A89521
:1002D00080916000886180936000109260000FBE82
:1002E000E0E0F8E3099511E0A0E0B1E0E8EBF7E326
:1002F00002C005900D92A838B107D9F722E0A8E80E
:10030000B1E001C01D92A432B207E1F70E94FA15D4
:100310000C94B61B0C94000089322DE5920729F04D
:100320008A329D4559F081E00895FB01828188233E
:10033000D1F38DEB90E00E942403F5CFFB01828185
:10034000882389F38CEA90E0F6CF811106C089EA10
:10035000611101C08AEA0C94730A089581E008953E
:100360000C948C0108950C94B2011F93CF93DF93EA
:1003700000D000D00F92CDB7DEB749835A836B838C
:100380003091A90189819A8131111DC06623B9F08C
:100390002223A9F00E944D11182F682F89819A817C
:1003A0000E94F61069817A81812F0F900F900F9033
:1003B0000F900F90DF91CF911F910C9436030E9404
:1003C0002411182FEFCF0E944D1169817A81EDCF52
:1003D000FC01262F408151816281738184810C94BC
:1003E000B501CF93DF93EC0160E00E94E801BE010C
:1003F000DF91CF910C94B3010E9483140E948C1260
:10040000811102C00E9430130C9411050C94140544
:1004100008950E94D80C0E9408022FEF84E39CE00C
:10042000215080409040E1F700C000000C94581427
:100430000F931F93CF93DF93EC0161E00E94E801DB
:100440008C01BE010E94B001882329F1BE01C801C0
:100450000E94DD068823F9F0BE01C8010E942F0723
:100460008823C9F0BE01C8010E945208882399F070
:100470008A81882339F001158CE5180751F00F3D6A
:100480001C4579F0CE01DF91CF911F910F910C9413
:10049000AE010E94090280E0DF91CF911F910F9180
:1004A00008950E943013F7CFDF92EF92FF920F93DF
:1004B0001F93CF93DF93E82FF0E0EF50FF4FD490DE
:1004C000282F26952695269530E0F901EF56FE4F08
:1004D0000491877010E0082E02C0159507950A94C4
:1004E000E2F701701127F901EF57FE4FE490F12C6C
:1004F000082E02C0F594E7940A94E2F791E0E9220D
:10050000FF24F901EF58FE4FC491D0E002C0D59509
:10051000C7958A95E2F7C170DD270115110519F01D
:1005200081EE0E94EE09E114F10419F086EE0E94BA
:10053000EE098D2D0E94730AEF2819F086EE0E94B5
:10054000340A012B19F081EE0E94340ACD2B51F0B0
:100550008CE2DF91CF911F910F91FF90EF90DF9090
:100560000C94730ADF91CF911F910F91FF90EF9040
:10057000DF900895EF92FF920F931F93CF93DF9335
:100580008C01F62E8AE0E82EF8018491882309F484
:1005900054C0813009F04DC0E8012196FE018491DC
:1005A000813091F42196FE0184910E94730A8E019C
:1005B0000F5F1F4F8F2D815038F3EFE9FFE0319728
:1005C000F1F700C00000F7CF823039F4E80122963D
:1005D000FE0184910E94EE09EACF833039F4E801EC
:1005E0002296FE0184910E94340AE1CF8430F9F60C
:1005F000E8012296FE01249190E080E0FE01319610
:100600002053330B2A30310548F0019780F2EFE98F
:10061000FFE03197F1F700C00000F7CFE89EA0019E
:10062000E99E500D1124C901840F951F2491EF01FB
:10063000E5CF0E945402E801BACFDF91CF911F911C
:100640000F91FF90EF90089560E00C94BA02089526
:100650000C94270381E008950C942A03CF93C82FAC
:100660000E9428038C2FCF910C942C03972F70E0BD
:1006700026E0929F600D711D1124FB019CE0899F73
:10068000E00DF11D1124EE0FFF1FE752FF4F859182
:1006900094910895CF93DF930E9436030E9436040D
:1006A000EC01811522E59207E8F5811531E5930704
:1006B00008F0ACC0883E910510F5803E910570F5BC
:1006C000883A910570F4853A910508F078C0813038
:1006D000910521F1009711F1049700F5D0E0C0E0F9
:1006E0001DC08F3B9105D0F7C85AD0E0CC0FDD1F5D
:1006F000C35FDE4F0990D881C02DD4640FC081152F
:1007000040E5940708F066C0C11580E4D80708F0FA
:100710005EC0CE019A9581159F4100F7CE01DF9111
:10072000CF910895811536E5930718F5811545E5B4
:10073000940708F083C0C11584E5D80708F079C094
:100740009C2F969596959E0123703327C115D3450E
:1007500008F461C0C1E0D0E002C0CC0FDD1F2A95D3
:10076000E2F730E2939FC0011124C82BD92BDA683D
:10077000D5CFC1158AE5D80778F4C11599E5D90711
:1007800008F066C0C11528E5D20708F4A7CFDC2F12
:10079000CC27C06FD06AC2CFCE019056811590424F
:1007A00008F09CCF8D2F8F710E94CD0490E0982F80
:1007B000882788279F719C012C2BE90147C0C55AC7
:1007C000D0E0C55CDE4FC881D0E0D064A7CFDF7039
:1007D000D06AA4CFE4E096958795EA95E1F7837017
:1007E0002C2F26952695237040E2249F90011124FA
:1007F000382B8C2F8370C1E0D0E002C0CC0FDD1FFE
:100800008A95E2F7C22BD32BDC6888CFD82FCC2770
:10081000C16FD06A83CFC1E0D0E002C0CC0FDD1F32
:100820002A95E2F720E2929FC0011124C82BD92B10
:10083000EBCFDC2FCC27C46FD06A70CF0E94CD04E1
:10084000C82FD0E0DC2FCC27CC27DF71D06266CF59
:100850008C2F8F700E94CD0434E0D695C7953A95C1
:10086000E1F7CF709C2FEC01D06958CF8238910509
:10087000B1F1B0F48133910509F475C048F48932BF
:10088000910509F469C08A32910509F473C008958D
:100890008533910509F459C08933910501F1089513
:1008A000833E9105A9F138F4803E9105F9F0823E2E
:1008B000910549F10895863E9105A9F1873E91057C
:1008C000C9F1843E910519F52091160221FF1FC040
:1008D0008091150284FD14C087EE90E00895209168
:1008E00015022370A1F080EE90E00895209115028A
:1008F00020FD47C03091160230FF09C024FF44C0DC
:1009000090E080E004C02091150222FDF7CF089509
:100910002091150222FD3BC03091160230FDE3CF3D
:1009200024FFF5CFEDCF2091150223FFF0CF24FD5A
:10093000E7CFD2CF2091150223FD2CC030911602B3
:1009400031FFEECF84EE90E008952091150225FF4F
:10095000DECF89E290E008952091150225FFD7CFE0
:1009600085E390E008952091150226FFD0CF8AE21A
:1009700090E008952091150226FFC9CF81E390E011
:10098000089589E390E0089583EE90E0089582EE63
:1009900090E0089586EE90E008959091150292FF00
:1009A00006C0282F28712830F9F4877F846093FFD0
:1009B00006C0282F28712831F1F4877E84612091A8
:1009C000160220FF06C0382F38713830D9F4877FDF
:1009D000816021FF06C0282F28712831D1F4877E3D
:1009E000816194FD877E0895282F24712430F9F6C3
:1009F0008B7F8860DCCF282F2471243101F78B7E18
:100A00008861DDCF382F3171313019F78E7F8860E2
:100A1000E0CF282F2171213121F78E7E8861E1CF2F
:100A200008950C94100508950C941305E82FF0E038
:100A3000E15FFD4F80810895089580EA8A95F1F77E
:100A4000089500C008950C941D05F894E82FE295D0
:100A5000EF70F0E031A1282F2F7081E090E001C00D
:100A6000880F2A95EAF7982F9095932391A392A146
:100A7000892B82A37894089586E60E94250587E64F
:100A80000E94250580EF0E94250581EF0E94250523
:100A900084EF0E94250587E90E94250586E90E94CA
:100AA000250584E90E942505ADE0B2E01C92EFE047
:100AB000F2E0108211961C92118282E00E94DF0502
:100AC0000C94FC01BF92CF92DF92EF92FF920F93B2
:100AD0001F93CF93DF9304E411E0CDE0D2E0C12C6B
:100AE000D12CEE24E394F12CF80181918F01F8943C
:100AF000E82FE295EF70F0E021A18F70A70102C00E
:100B0000440F551F8A95E2F7CA01922F982B91A3A3
:100B100092A18095892382A378940E942105EEE317
:100B2000F1E030E020E0B12C4191A42FA295AF700C
:100B3000B0E090968C9190E04F7002C095958795AB
:100B40004A95E2F780FD37C08E2D022E01C0880F36
:100B50000A94EAF7B82A2F5F3F4F2630310521F774
:100B6000F801319780810E942505C11002C00E94C2
:100B700023058881B81609F1B88281E0D82A219628
:100B800051E0C51215C02D2D42E06FE072E08DE0FE
:100B900092E00E94E0050E9406028D2DDF91CF9128
:100BA0001F910F91FF90EF90DF90CF90BF9008952D
:100BB000CC24C39499CF80E0CDCF80E0DFCF0895DF
:100BC000FF920F931F93CF93DF93F82E092F162FC9
:100BD000D72FC42F222349F081E080938C010E94FB
:100BE0000D1490938B0180938A0180918C0188234E
:100BF000A1F080918A0190918B010E9425140697A3
:100C000060F0EF2DF02FA12FBD2FCE0FDF2FD11DC4
:100C1000EC17FD0741F410928C01DF91CF911F91E9
:100C20000F91FF90089581918D93F2CF0C94A501BF
:100C300053985B9A52985A9A89B183FB882780F916
:100C40004A9905C090E0892B80938F01089592E026
:100C5000FACFE0918F01EE0FEE0FE0938F0149B1D3
:100C600043FB882780F949B142FB222720F942FF44
:100C700002C022E030E0822BE82BE0938F01EF707E
:100C8000F0E0EA5BFE4F808190918E01890F8093A6
:100C90008E0120E0833054F080918D018F5F80932E
:100CA0008D0160E080E00E94160621E080918E01B7
:100CB0008E3F54F480918D01815080938D0161E0CD
:100CC00080E00E94160621E080918E01082E000C23
:100CD000990B63E070E00E94461B80938E01822F87
:100CE00008950F931F93CF93DF93C42FD22FFC014E
:100CF00082818823C9F0409392010E940D14909341
:100D000091018093900180E28C0F883008F050C0F0
:100D1000C77081E001C0880FCA95EAF7DF91CF91D3
:100D20001F910F910C947B0A10919201141335C0FE
:100D300080919001909191010E942514883C910529
:100D400060F5C0E2CD0F1D17B9F080E2810F883049
:100D500040F4177081E001C0880F1A95EAF70E94ED
:100D6000820AC83048F481E09D2F977001C0880F37
:100D70009A95EAF70E947B0A802F0E94730AC83076
:100D8000B8F4D77081E001C0880FDA95EAF7DF91F7
:100D9000CF911F910F910C94820A80E28C0F8830C2
:100DA00038F4C77081E001C0880FCA95EAF7EFCF29
:100DB000DF91CF911F910F9108950F939C01CB016B
:100DC000243F4CE5340759F1A8F4293DFCE53F07E1
:100DD00001F12A3D4CE53407D1F1283D3C4591F421
:100DE00006E221EE41EE68ED7CE50E94710680E0AE
:100DF0000F910895263FFCE53F07E9F0B0F0273F4B
:100E00003C45F9F0FC018281882339F1109292016E
:100E1000EFCF07E225EE45EE69ED7CE5E6CF06E291
:100E200021EE40EE64EF7CE5E0CF07E225EE44EEF4
:100E300065EF7CE5DACF06E221EE42EE66EF7CE577
:100E4000D4CF07E225EE46EE67EF7CE5CECF08E291
:100E500021E045EE6AED7CE5C8CF81E0C9CFCF93B4
:100E6000DF93EC01FB018281882309F419C1C230B0
:100E7000FCE5DF07C0F1C6319CE5D90730F09E01E3
:100E80002B5F3C452930310570F50E949F129093ED
:100E9000160280931502C031ECE5DE0709F4CFC0DD
:100EA00008F05BC0C8308CE5D80709F4B6C088F5F7
:100EB000C430ECE5DE0709F4A8C0C0F4C2308CE50C
:100EC000D80709F49CC0809115028260C330DC45CC
:100ED00009F498C080911502909116020E94AD12FB
:100EE0000E94D80C80E0DF91CF9108958091150287
:100EF0008061C630ECE5DE0709F484C080911502FC
:100F00008860C730DC4508F47DC08091150280629E
:100F100079C0CC308CE5D80709F489C070F4809191
:100F200015028C60CA30ECE5DE0709F46BC008F4EA
:100F300078C0809115028E7F65C0CE308CE5D807D1
:100F400009F479C0809115028B7FCF30DC4508F41D
:100F500059C0809115028F7E55C0CC3FECE5DE076D
:100F600009F457C030F5C3318CE5D80709F46FC0D8
:100F700078F4C131ECE5DE0709F465C0C231DC4527
:100F800009F0A8CF0E94D80C809115028F773AC043
:100F9000C5318CE5D80709F462C008F476C08091A9
:100FA00016028160CB3FDC4509F094CF8093160296
:100FB00091CFC115FDE5DF0709F44DC088F480919C
:100FC00016028D7FCE3F9CE5D90781F380911602F2
:100FD0008E7FCF3FDC4550F3809116028360E6CFD1
:100FE000C230FDE5DF0709F459C008F444C080E0D1
:100FF000C330DD4509F06ECF0E9432136BCF809174
:10100000150281608093150265CF8091150284607E
:10101000F9CF809116028260C9CF80911502806459
:10102000F1CF0E94D80C809115028068EBCF80919F
:1010300015028D7FE7CF80911502877FE3CF8091E6
:1010400015028F7DDFCF809115028F7BDBCF8091E2
:101050001502837FD7CF809116028C7FA7CF809116
:10106000150282FB992790F921E0922790FB82F9E3
:1010700090FB83F9C7CF80911602982F90959170BD
:101080008E7F892B90FB81F991CF0E94D80C909193
:101090001502892F97FB87F98058B4CF81E0ACCF38
:1010A00081E021CFCF93DF93EB0186319C4511F591
:1010B0000E94E2119A81992399F08A7A91E009F4C9
:1010C00090E090939301811109C089E20E94BD11C3
:1010D0000E94211280E0DF91CF91089585E3F6CF41
:1010E00080919301811104C089E20E94C411F0CF64
:1010F00085E3FBCF81E0EFCF909399018093980136
:101100000895E0919801F0919901309721F00190B4
:10111000F081E02D099480E00895E0919801F0912C
:101120009901309721F00280F381E02D0994089510
:1011300020919601309197012817390771F090930B
:10114000970180939601E0919801F0919901309771
:1011500021F00680F781E02D0994089520919401F3
:10116000309195012817390771F09093950180937C
:101170009401E0919801F0919901309721F0008459
:10118000F185E02D099408950E9419146093A5013A
:101190007093A6018093A7019093A8016093A10189
:1011A0007093A2018093A3019093A40108950E94DB
:1011B00019146093A5017093A6018093A7019093E1
:1011C000A80160939D0170939E0180939F0190936D
:1011D000A001089585B7806885BF85B7806885BF01
:1011E0000895089508950C94F10808950C94F50855
:1011F0000E94EA0884E892E10E947C140E94F208AE
:101200000C94F30881E008950C9402090895089560
:101210000E9404140E943C050E9497140E94180624
:101220000C94F608AF92BF92CF92DF92EF92FF92AA
:101230000F931F93CF93DF93CDB7DEB72A970FB6E7
:10124000F894DEBF0FBECDBF0E9406090E940709B9
:101250000E94620581110E94C4088BE9A82E81E0DA
:10126000B82E10E000E0C02E802F0E941605E82E58
:10127000F501F1905F01F81609F454C08091010264
:1012800081FD0E941C058F2D8E25D12CFF24F39407
:10129000982F9F2109F441C00E940409882399F0E6
:1012A000DE82CF82EF2081E009F480E088870E940F
:1012B0000D148160782F9A8789874E815F816885B8
:1012C0008A850E94B709F801E556FE4F8081F8260D
:1012D000F0820E94290681110E94D7080E9481088D
:1012E00090919A01891791F10E94810880939A0147
:1012F0002A960FB6F894DEBF0FBECDBFDF91CF9117
:101300001F910F91FF90EF90DF90CF90BF90AF9023
:101310000C942E0301E010E0A6CFD394FF0CF6E06E
:10132000DF12B6CF01301105A9F78FEF89838A83C9
:101330001B820E940D148160782F9D838C834981CC
:101340005A816B818D810E94B709C3CF2A960FB64F
:10135000F894DEBF0FBECDBFDF91CF911F910F91EB
:10136000FF90EF90DF90CF90BF90AF900895DF9205
:10137000EF92FF920F931F93CF93DF93CDB7DEB71A
:101380002B970FB6F894DEBF0FBECDBF7A878B8741
:10139000F42E052F162FE72ED82E61110E9402126F
:1013A0001E821D827E2DEC82DD824F2D502F612FFB
:1013B0008D2D9E812B960FB6F894DEBF0FBECDBF4C
:1013C000DF91CF911F910F91FF90EF90DF900C94E0
:1013D0004E0FFC01808191810C948F11CF93C82F07
:1013E000882309F43FC08CEF8C0F813AA0F46C2F56
:1013F00080910001909101010E944913882329F0F6
:101400008C2F0E94C4110E9421128C2F0E94BD11AA
:10141000CF910C94211280E28C0F883048F4C77071
:1014200081E001C0880FCA95EAF70E94E511F0CF6C
:10143000EBE5EC0FE33040F4F0E0EC57FE4F808139
:1014400090E0CF910C949808C85AC73158F4EC2F0B
:10145000F0E0EE0FFF1FEA5AFE4F80819181CF919D
:101460000C94AE08CF910895882329F19CEF980F32
:10147000913A20F40E94C4110C94211290E2980F2A
:10148000983050F4877091E001C0990F8A95EAF77F
:10149000892F0E94EB11F0CF9BE5980F933020F439
:1014A00090E080E00C949808885A873120F490E00E
:1014B00080E00C94AE0808951F93CF93DF93182F0C
:1014C000EB010E94EE09209731F4812FDF91CF913B
:1014D0001F910C94340A8FE99FE00197F1F700C047
:1014E00000002197F0CF70E060E0893311F460E5EF
:1014F00070E00C945C0A882321F00E94E5110C94A2
:1015000021120895882321F00E94EB110C942112DE
:101510000895BF92CF92DF92EF92FF920F931F93A5
:10152000CF93DF936C01D62FC72FFC011281058169
:1015300002950F700E94DB11E82E8823A1F0E12EA6
:10154000112389F08C2F807F803429F080E28D0F69
:10155000E12C883040F082E00E946C120E94DB1186
:1015600091E0E82EE926BC2EB2949FE0B922FBE080
:10157000FB1598F1EB2DF0E0E854F44E0C945A1B57
:101580000C2F0F70C07F11F00295007F1123A9F07E
:10159000002359F080E28D0F883010F0D11109C07E
:1015A000802F0E94E5110E9421128D2F0E94EE09CA
:1015B00014C0802F0E94F511F6CF8D2F0E94340A9F
:1015C000002359F080E28D0F883010F0D1112CC02B
:1015D000802F0E94EB110E9421122B2D2850330BDB
:1015E0002430310520F40E9481080E942E03EE2051
:1015F00009F483C10E94D71180FD7FC1F6011282D8
:101600000E94D1110E945A10C6010E949E0C0E9495
:10161000D111DF91CF911F910F91FF90EF90DF904B
:10162000CF90BF900C947B10802F0E94FB11D3CFE2
:101630002C2F2F70F22EC07FC03219F0F29480EF61
:10164000F822DD2369F0D13049F1112391F1002313
:1016500051F1F601858180FFA8CF8F70858323C06B
:10166000112381F0011106C00E9408128F290E94E7
:101670007B0AB3CF0130C1F70E9408128F290E9464
:101680000E12ABCF011106C00E9417128F2D0E94BF
:10169000820AA3CF013009F4A0CFF6CF112329F09D
:1016A000063008F09ACF8F2DE2CF053008F095CFA5
:1016B000EDCF002359F3D93349F4FFEF27EE33E0A0
:1016C000F15020403040E1F700C000008D2F0E9413
:1016D000340A83CF8C2F86958695837069F081308C
:1016E00009F07BCF8D2F9C2F9370111102C090E0D9
:1016F00080E00E94AE0871CF8D2F9C2F9370111146
:1017000002C090E080E00E94980867CF8C2F837021
:1017100009F041C0111161CF4D2F42954695477098
:10172000440F440F0D2F0F7010E030E020E0042E26
:1017300004C0000F111F221F331F0A94D2F760E06C
:1017400070E0CB01D4FF0FC06FE070E080E090E06C
:1017500004C0660F771F881F991F4A95D2F76095BE
:10176000709580959095C695C695C370602B712B2A
:10177000822B932BC23049F058F4C13019F00E94EB
:101780000C102BCF0E94FA0F28CF0E941E1025CFDD
:101790000E94F80F22CF8695112311F08C2F8170B3
:1017A000882309F41ACF4D2F429546954770440F70
:1017B000440F0D2F0F7010E030E020E0042E04C025
:1017C000000F111F221F331F0A94D2F760E070E050
:1017D000CB01D4FF0FC06FE070E080E090E004C068
:1017E000660F771F881F991F4A95D2F760957095ED
:1017F00080959095C695C695C370602B712B822BF2
:10180000932BC23049F058F4C13019F00E94D11026
:10181000E4CE0E94BF10E1CE0E94E310DECE0E9413
:101820003410DBCECF70112329F08C2F0E945A1078
:101830008D2F1DCF8D2F0E94820A8C2F0E947B102E
:10184000CCCED23F89F160F4D03FC9F0D13F29F12D
:10185000112309F442C00111A8CE8C2F8F7121C031
:10186000D33F39F1D43FA1F7112369F1CF718C2F08
:101870000E945A1063E08C2F0E945712AECE1123A3
:1018800041F0053008F0A9CE8C2F8F710E949E1078
:10189000A4CE063008F0A1CEF7CF8C2F8F71112384
:1018A00069F20E945A1099CE8C2F8F711123C9F3BF
:1018B000C5CF112329F08C2F8F710E9445108DCE3A
:1018C0000E9440108ACE81E00E946C12023008F41F
:1018D00084CE82E00E946C1280CE002359F0D9336E
:1018E00009F0F4CE8FEF97EEE3E081509040E040B6
:1018F000E1F7EACE8C2F8F71A1CFDF91CF911F91AD
:101900000F91FF90EF90DF90CF90BF9008950F93CD
:101910001F93CF93DF93EC01688179818A810E94C4
:1019200099118C010E94F5100E94F70FB801CE01A9
:10193000DF91CF911F910F910C94890ACF93DF9380
:10194000EC018B819C81892B29F0888199818923E5
:101950008F3F59F4DF91CF910895CE010E94870CFB
:10196000CE01DF91CF910C94F101CE010E941802BB
:101970008111F3CF0E94DB11882361F38A818823D0
:1019800049F382E0DF91CF910C946C1290E080E0FB
:101990000E94980890E080E00E94AE080E94021227
:1019A0000E9405120C9421120E94CB110C94C60CBB
:1019B0000E94F2110C94D40CE92FE295EF70E250E2
:1019C000EE3070F4F0E0EC53F44E0C945A1B803F70
:1019D00019F020F4883E20F481E00895843FE1F37B
:1019E00080E00895883EC0F3813FD1F7F5CF93FBA7
:1019F000882780F908950E948F110C94DC0CCF93F6
:101A0000DF9300D000D00F92CDB7DEB70F900F90CC
:101A10000F900F900F90DF91CF910895CF93DF93A8
:101A200000D000D000D0CDB7DEB726960FB6F89420
:101A3000DEBF0FBECDBFDF91CF9108951F93CF932F
:101A4000DF93C091AA0116E08091AB018C1304C012
:101A5000DF91CF911F910895D0E01C9FF0011D9F51
:101A6000F00D1124E455FE4F408151816281738154
:101A7000848195810E940E0D2196C770E5CF40911B
:101A8000DC015091DD016091DE017091DF018091F8
:101A9000E0019091E1010C940E0D1F93CF93DF9321
:101AA0008091E101807FA9F48091DE01882389F093
:101AB0008091AA01C091AB016091DC017091DD01C0
:101AC000A091DF01B091E001D62FD72316E0C81313
:101AD00004C0DF91CF911F91089590E0109711F00D
:101AE000DF3F19F401968770F2CF189F9001199F7C
:101AF000300D1124F901E455FE4F41814713F2CF17
:101B000040814613EFCF42814111ECCF4381548194
:101B10004A1B5B0B483C510528F78091E1018F700F
:101B200080618093E101F901EF54FE4F80818F7055
:101B3000806180838CED91E00E949E0CDF91CF91BB
:101B40001F910C941E0DAF92BF92CF92DF92EF9235
:101B5000FF920F931F93CF93DF93CDB7DEB76197BB
:101B60000FB6F894DEBF0FBECDBF8C0185E0F80143
:101B7000DE011D9601900D928A95E1F7F8014081F2
:101B80005181E2808CEDC82E81E0D82E6091DF017A
:101B90007091E0016115710509F461C19091DC015A
:101BA0002091DD01892F82238F3F09F458C1A38042
:101BB000B480F090DE01F501E61BF70BFF2009F47D
:101BC000FCC08091E101382F307FE83CF10508F03E
:101BD000B2C0311179C0FE2C251323C0941321C04B
:101BE000E1101FC08F7080618093E1010E943F0D62
:101BF000C6010E949E0C8091E101F80185838F2D22
:101C000061960FB6F894DEBF0FBECDBFDF91CF91C6
:101C10001F910F91FF90EF90DF90CF90BF90AF900A
:101C20000895AB2829F0842F85238F3F09F033C115
:101C300080E0F82FF170DF2E80FF3CC08091AA0178
:101C40002091AB0136E0821315C04D875E878D85EC
:101C50009E850E948F11292F22952F702230F0F03F
:101C6000243018F59F70F1F0F8019581907FD1F440
:101C7000D12C1EC090E0389FF001399FF00D112447
:101C8000E455FE4F6181651306C06081641303C093
:101C900062816E110FC001968770D5CF9F7011F0D1
:101CA000882331F3805E883018F3C8010E949E0CAF
:101CB000FD2CA5CFEE2009F4A2CF8091E101816037
:101CC0008093E101F12C9BCF251306C0941304C02F
:101CD000F801EE2009F48DC04D875E878D859E85C5
:101CE0000E94FB0C882319F1EE2009F18091E1019B
:101CF000803270F02091DC013091DD0138872F8334
:101D00001986BB86AA868C87CE0107960E949E0CF8
:101D100086E0F801ACEDB1E001900D928A95E1F713
:101D20000E944D0D0E943F0DFF24F39468CFC8011F
:101D30000E949E0CF9CF311113C07A2DB98AA88A5E
:101D40006E2D89890E94FF0C8CED91E00E949E0C03
:101D500086E0F60111928A95E9F70E943F0DB2CF15
:101D600025130FC094130DC0E1100BC0F80185833B
:101D7000C8010E949E0C86E0F60111928A95E9F74F
:101D80003ECF4D875E878D859E850E94FB0C882304
:101D900071F2EE2061F28091E101803208F4B8CF57
:101DA0002091DC013091DD013A8329831B82BD82C1
:101DB000AC828E83CE010196A9CFE83CF10508F0F4
:101DC00041C0FE2CEE2009F4B2CF25132AC0941393
:101DD00028C08091E10180FD1BC0982F907FC1F049
:101DE000F8018583903F31F0982F907F905F8F703E
:101DF000892B8583C8010E949E0C86E0F801ACED1A
:101E0000B1E001900D928A95E1F70E943F0DF7CE67
:101E100086E0F801ACEDB1E001900D928A95E1F712
:101E2000EECE4D875E878D859E850E94FB0C8111CD
:101E30006FCF8091E10181608093E101C8010E9430
:101E40009E0CDDCE7A2DB98AA88A6E2D89890E94D2
:101E5000FF0C86E0F60111928A95E9F7D6CFEE20C5
:101E600009F465CF4D875E878D859E850E94FB0CAA
:101E7000F82E882309F45BCF86E0F801ACEDB1E0E1
:101E800001900D928A95E1F78CED91E00E94E909AD
:101E90000E944D0DBACF81E08E25CBCE1F93CF93FC
:101EA000DF93CDB7DEB72C970FB6F894DEBF0FBE29
:101EB000CDBF4F83588769877A878B879C87CE01F0
:101EC00007960E94A30D882369F08A859B85892B3C
:101ED00039F04F815885842F85238F3F09F071C0D9
:101EE00016E05FC086E0FE013796DE011196019094
:101EF0000D928A95E1F78A859B85892B89F38F81DD
:101F0000988589238F3F61F32091AB0130E0C901AF
:101F10000196877099274091AA014817190671F414
:101F20000E94D80C1092AB011092AA0186E0ECED51
:101F3000F1E0DF011D928A95E9F7D2CF96E0929FFA
:101F4000D001939FB00D1124A455BE4FFE013196D0
:101F500001900D929A95E1F78093AB010E941E0DBE
:101F6000BFCF819FC001112484559E4F0E94A30DB5
:101F70008823E9F0E091AA011E9FF0011124E455A5
:101F8000FE4F4081518162817381848195810E94DD
:101F90000E0D8091AA0190E0019687709927809399
:101FA000AA018091AA019091AB018913DACF2C96F6
:101FB0000FB6F894DEBF0FBECDBFDF91CF911F915A
:101FC000089569857A858B859C850E940E0D88CF42
:101FD00008950C94E80F0E94E90F6093F00170934C
:101FE000F1018093F2019093F3010C94C60C0895D3
:101FF0000C94EB0F0F931F930091F0011091F101DE
:102000002091F2013091F301602B712B822B932BE5
:102010001F910F910C94EB0F0F931F930091F00100
:102020001091F1012091F2013091F30160237123AD
:10203000822393231F910F910C94EB0F0F931F9307
:102040000091F0011091F1012091F2013091F30122
:1020500060277127822793271F910F910C94EB0F14
:102060000C94E80F0C9430100E9432106093EC0135
:102070007093ED018093EE019093EF010C94C60CE8
:1020800060E070E0CB010C9434100F931F9341E09B
:1020900050E060E070E08A019B0104C0000F111F56
:1020A000221F331F8A95D2F7C901B8011F910F91E2
:1020B0000C9434100F931F9341E050E060E070E007
:1020C00004C0440F551F661F771F8A95D2F7809171
:1020D000EC019091ED01A091EE01B091EF018A0128
:1020E0009B01082B192B2A2B3B2BC901B8011F91EF
:1020F0000F910C9434100F931F9341E050E060E077
:1021000070E004C0440F551F661F771F8A95D2F7F1
:10211000CB01BA0160957095809590950091EC0186
:102120001091ED012091EE013091EF0160237123B8
:10213000822393231F910F910C9434100F931F93BC
:1021400041E050E060E070E004C0440F551F661F9E
:10215000771F8A95D2F78091EC019091ED01A091C3
:10216000EE01B091EF018A019B01082719272A2768
:102170003B27C901B8011F910F910C9434100F93A4
:102180001F930091EC011091ED012091EE0130912F
:10219000EF01602B712B822B932B1F910F910C94CD
:1021A00034100F931F930091EC011091ED012091D9
:1021B000EE013091EF0160237123822393231F915D
:1021C0000F910C9434100F931F930091EC01109118
:1021D000ED012091EE013091EF01602771278227F8
:1021E00093271F910F910C9434100895E92FEE0F4F
:1021F000E90FEE0F8E0F982F977041E001C0440F4A
:102200009A95EAF786958695869595E0899FF001DF
:102210001124EE51FE4F30E020E070E05191DF01DB
:102220001197CB01022E02C0969587950A94E2F78A
:10223000817081958527842385278C932F5F3F4F5D
:102240002530310559F70895E92FEE0FE90FEE0F0C
:102250008E0F982F977086958695869525E0829F9C
:10226000F0011124EE51FE4F50E040E080E021915A
:1022700030E0092E02C0369527950A94E2F72170C6
:102280003327042E01C0220F0A94EAF7822B4F5FF6
:102290005F4F4530510559F70895BF92CF92DF92B5
:1022A000EF92FF920F931F93CF93DF938C01C09017
:1022B000EC01D090ED01E090EE01F090EF01809103
:1022C000F0019091F101A091F201B091F301C82ABF
:1022D000D92AEA2AFB2ACFE1D0E0BC2ED701C601D9
:1022E0000C2E04C0B695A795979587950A94D2F7BA
:1022F00080FD0EC0219788F7B12C8B2DDF91CF91F7
:102300001F910F91FF90EF90DF90CF90BF900895B5
:10231000B8018C2F0E944A03019761F3EECFCF934F
:10232000DF93EC010E944D11BE01DF91CF910C941F
:102330004A031F93CF93DF93EB019091A901992357
:1023400031F0CB01DF91CF911F910C948F11882335
:1023500079F0CB010E944D11182F682FCE010E94F9
:10236000F610BE01812FDF91CF911F910C944A038B
:10237000CB010E942411182FF4CF682F8091000107
:10238000909101010C947F13682F8091000190912E
:1023900001010C94811380910001909101010C9432
:1023A00083138091F4018595859585950895809195
:1023B000F401877008959091F401977081E009F419
:1023C00080E0089580910002089590910002892B89
:1023D0008093000208958095909100029823909335
:1023E000000208951092000208959091FF01892B38
:1023F0008093FF01089580959091FF019823909319
:10240000FF0108951092FF0108951092FE010895B2
:102410008091F501089508950C940B129091F501A7
:10242000981721F08093F5010C940C120895809177
:10243000F501882329F01092F50180E00C940C122C
:102440000895E0910001F0910101809100028083E4
:10245000E0910001F091010180819091FF01892BB1
:102460008083E0910001F091010180819091FE0153
:10247000892B80839091F501992381F0E0910001EF
:10248000F09101018081892B8083809100019091DE
:1024900001010E94371381110E94171280910001DF
:1024A000909101010C948D0808950C94541298E0B9
:1024B000899F90011124622B6093F4010E945A10AD
:1024C0008091F4018595859585950C94551210920F
:1024D000F40180E00C9455129091F40180958923C9
:1024E0008093F401282F277071F4282F082E000CF8
:1024F000330B9217130639F08595859585950E94C3
:102500007B100C946712089580E008956FEF7FEFC1
:1025100090E080E00C94A01B90E080E00E947C1B87
:1025200021E08B3E9E4F09F020E0822F089582E04B
:1025300090E00C94741B83E090E00C94741BCF9398
:1025400084E090E00E94741BC82F81E290E00E941A
:10255000741B982F8C2FCF910895CF93C92F682F7C
:1025600084E090E00E94821B6C2F81E290E0CF918A
:102570000C94821BAB01BC018FE090E00C94941B87
:10258000AB01BC0183E190E00C94941B60E070E02F
:10259000CB010C94C01260E070E0CB010E94BA1233
:1025A0000C94C6126BEE7EEF90E080E00E94A01BC0
:1025B00060E082E090E00E94821B60E083E090E0B7
:1025C0000E94821B1092F0011092F1011092F20110
:1025D0001092F30160E084E090E00E94821B60E0D2
:1025E00081E290E00E94821B60E085E090E00E9422
:1025F000821B60E086E090E00E94821B6FEF87E024
:1026000090E00E94821B40E050E0BA0188E090E038
:102610000E94941B60E08DE090E00E94821B40E0ED
:1026200050E0BA0188E190E00E94941B60E087E1ED
:1026300090E00E94821B40E050E0BA018CE190E003
:102640000E94941B60E080E290E00E94821B40E0C8
:1026500050E0BA0188E190E00E94941B0C94CB12E8
:102660000C94D212682F8EE090E00C94821B9C0197
:102670002E5F3F4FAC01485F5F4F80E02417350766
:1026800009F40895F90191919F019923B9F38F5F9E
:10269000F5CF662349F0FC01329608962191261762
:1026A00029F0E817F907D1F780E0089581E008954F
:1026B0009C01FC0132969FEF80E04191461751F05A
:1026C0009F3F19F4411101C0982F8F5F8630A9F701
:1026D0009F3F09F40895290F311D97FD3A95F9019F
:1026E00062830895FC01329608962191261303C057
:1026F000DF0111971C92E817F907B9F708950C94B8
:1027000058130C947213029626E0FC0111922A953C
:10271000E9F70895089508950C948B1380911B0296
:10272000843049F10E948C1380E00E942E031092A5
:10273000020288E190E020E40FB6F894A895809317
:1027400060000FBE2093600083B7817F846083BFE9
:1027500083B7816083BF7894889583B78E7F83BF6A
:102760000FB6F894A895809160008861809360000E
:10277000109260000FBE089508950E948A130E946F
:1027800062050E94BC1380E00E94160591E0811151
:1027900007C081E00E94160591E0811101C090E020
:1027A000892F089508950C94D2130E94D80C0E948A
:1027B00081080E942E030C94D3131F921FB61F9200
:1027C00011248F939F93AF93BF9380910202811145
:1027D00013C08091110290911202A0911302B09146
:1027E00014024196A11DB11D809311029093120213
:1027F000A0931302B0931402BF91AF919F918F9158
:102800001F901FBE1F90189582E084BD93E095BD78
:102810009AEF97BD80936E0008952FB7F89480913A
:10282000110290911202A0911302B09114022FBFD5
:1028300008952FB7F894609111027091120280915F
:102840001302909114022FBF08959C014FB7F89482
:102850008091110290911202A0911302B091140282
:102860004FBF821B930B089578941F921FB61F923F
:1028700011248F939F93AF93BF93809111029091F6
:102880001202A0911302B09114020196A11DB11D74
:102890008093110290931202A0931302B09314023A
:1028A000BF91AF919F918F911F901FBE1F90189560
:1028B00081E08093E00080E28093D8001092C9000C
:1028C0008FE19EE40197F1F700C0000087E090EBF4
:1028D000DC018093240290932502A0932602B093FA
:1028E000270288E19CE00FB6F894A89580936000D9
:1028F0000FBE90936000FFCF909389018093880171
:1029000008950C9486120E9462058FE39CE901975A
:10291000F1F700C000000E94620580E00E941605E9
:1029200080FF04C00E9481140C94581408950E94E2
:102930008C12811102C00E9430130E949712809362
:1029400001020E949F1290931602809315020E942A
:102950009B12682F70E090E080E00E94F80F609179
:10296000EC017091ED018091EE019091EF010C94DA
:10297000321080910B0208950895CF93DF9300D019
:102980000F92CDB7DEB790911B02943019F5898371
:102990007B836A8382E08093E9008FEF9091E80067
:1029A000815095FD06C095ED9A95F1F700008111D3
:1029B000F5CF8091E80085FF0DC050E040E063E076
:1029C00070E0CE0101960E94B5168091E8008E77E6
:1029D0008093E8000F900F900F90DF91CF910895B2
:1029E000BC0184E00C94BD14BC0183E00C94BD14C4
:1029F000CF93DF93EC0181E08093E9008FEF90911A
:102A0000E800815095FD06C095ED9A95F1F700001C
:102A10008111F5CF8091E80085FF14C050E040E0BF
:102A200068E070E0CE010E94B5168091E8008E77D4
:102A30008093E80088E0FE01A3E0B2E001900D92EF
:102A40008A95E1F7DF91CF91089580911A02811163
:102A500009C00E9445180E94A2188091E20084607B
:102A60008093E200089510921A020895089508953F
:102A7000089542E061EC81E00E94C11742E261ECFE
:102A800082E00C94C11780911D02833009F45FC06D
:102A900030F48130C1F1823009F49BC008958A304E
:102AA00009F487C08B3009F46DC0893009F04EC03D
:102AB00080911C02813209F049C0809120029091DE
:102AC0002102029708F042C08091E800877F80933E
:102AD000E8008091E80082FF35C09091F30080917A
:102AE000F200029729F48091F1008B7F813021F46C
:102AF0008091F10080930B028091E8008B778093A6
:102B0000E8000C94F51780911C02813AF9F4809149
:102B1000E800877F8093E800809120029091210255
:102B2000892B61F468E083E092E070E00E94041772
:102B30008091E8008B778093E800089560E090E052
:102B400080E0F3CF80911B028111C3CF0895809163
:102B50001C02813AD9F78091200290912102892BA1
:102B6000A9F78091E800877F8093E8008091E800D2
:102B700080FFFCCF80910C018093F1008091E800F0
:102B80008E77BDCF80911C02813201F780912002A7
:102B900090912102892BD1F68091E800877F809364
:102BA000E8000E94F51780911E0280930C010C949E
:102BB000D80C80911C02813249F68091E800877F11
:102BC0008093E8000E94F51780911F0280930C0209
:102BD000089580911C02813A09F0B8CF8091E800F5
:102BE000877F8093E8008091E80080FFFCCF809190
:102BF0000C02C2CF84B7877F84BF0FB6F894A89524
:102C000080916000886180936000109260000FBE28
:102C100080E890E00FB6F894809361009093610093
:102C20000FBE0E94F8080E9445180E94A2188091C9
:102C3000E20084608093E20078940E942B1B0E9443
:102C4000080982E091E00E947C0880911B02853097
:102C5000A9F00E9412090E9406090E940709F5CFF7
:102C60000E948E1380911902882341F00E94BD13A7
:102C7000882321F00E949F160E94D80C80911B028D
:102C8000853071F30E94D513E4CF0C944716292F99
:102C900033272330310519F168F42130310509F467
:102CA00044C02230310509F445C090E080E030E0B6
:102CB00020E025C02132310549F122323105A9F742
:102CC00080E490E026E432E061157105C1F082E312
:102CD00090E024E132E06130710589F0E6CF992778
:102CE0008130910581F0009729F00297F1F6E1EA31
:102CF000F1E002C0E3ECF1E0849190E09F01FA0181
:102D0000318320830895E5EBF1E0F6CF89E090E090
:102D100029ED31E06115710591F389E090E022EF32
:102D200031E06130710559F3C0CF82E190E022E0DB
:102D300032E0E5CF8BE390E027EC31E0E0CF80E1BB
:102D400089BD82E189BD09B400FEFDCF8091D80024
:102D50008F7D8093D8008091E00082608093E000B6
:102D60008091E00081FDFCCF0895AF92BF92CF9299
:102D7000DF92FF920F931F93CF93DF936C01EB01D0
:102D80008A010E941418F82E811123C00115110523
:102D900039F0F80180819181C81BD90BC80ED91E6A
:102DA000B12CA12C2097A9F08091E80085FD22C0CC
:102DB0008091E8008E778093E80001151105A1F05D
:102DC000F80180819181A80EB91EB182A08285E0B0
:102DD000F82E8F2DDF91CF911F910F91FF90DF90F3
:102DE000CF90BF90AF9008950E9414188823D1F21D
:102DF000F82EEFCFF60181916F018093F1002197BA
:102E0000FFEFAF1ABF0ACECFFC0180912202909152
:102E1000230286179707A0F06115710529F4909198
:102E2000E8009E779093E80090E06115710551F4F9
:102E3000911108C08091E80082FF34C080E00895BD
:102E4000BC01F2CF80911B028823C1F18530C1F112
:102E50008091E80083FD30C08091E80082FDEACFD8
:102E60008091E80080FFE1CF8091F3002091F20093
:102E7000382F6115710519F02830310558F091E0AF
:102E80002830310509F090E02091E8002E7720935A
:102E9000E800CBCF81918093F100615071092F5FE1
:102EA0003F4FE7CF80911B02882341F0853041F0EE
:102EB0008091E80083FFBECF81E0089582E008950D
:102EC00083E00895FC0180912202909123028617ED
:102ED0009707A0F06115710529F48091E8008E77BD
:102EE0008093E80090E06115710551F4911108C0DC
:102EF0008091E80082FF35C080E00895BC01F2CFE8
:102F000080911B028823C9F18530C9F18091E800C6
:102F100083FD31C08091E80082FDEACF8091E80016
:102F200080FFE1CF8091F3002091F200382F6115EE
:102F3000710519F02830310558F091E0283031053D
:102F400009F090E08091E8008E778093E800CBCF85
:102F500084918093F1003196615071092F5F3F4F4A
:102F6000E6CF80911B02882341F0853041F08091AB
:102F7000E80083FFBDCF81E0089582E0089583E0FB
:102F80000895982F973028F08F708093E90081E0A2
:102F900008959093E900242F762F50E0981731F090
:102FA0007091EC002091ED005091F00021FD02C0E5
:102FB0009F5FE8CF3091EB003E7F3093EB00309184
:102FC000ED003D7F3093ED003091EB0031603093A8
:102FD000EB007093EC002093ED005093F0002091F3
:102FE000EE0027FDE5CF80E0089580911C0287FF69
:102FF00013C08091E80082FF06C08091E8008B77C3
:103000008093E80004C080911B028111F2CF0895E3
:1030100080911B028823D9F38091E80080FFF8CFCC
:103020008091E8008E77ECCF2091E4003091E500AC
:1030300095E6A9012091EC00822F817020FF06C047
:103040008091E80080FF06C080E008952091E800AC
:1030500022FD1AC080911B02882389F0853089F0F7
:103060008091EB0085FD0FC02091E4003091E500D8
:1030700042175307F9F29150E1F684E0089582E097
:10308000089583E0089581E008950E94B3180E9496
:10309000BB18E0EEF0E0808181608083E8EDF0E035
:1030A00080818F77808319BCA7EDB0E08C918E7FF3
:1030B0008C9380818F7E808310921A0208950F93E3
:1030C0001F93CF93DF930E94B3180E94BB18C8EDE3
:1030D000D0E088818F778883888180688883888121
:1030E0008F7D888319BC10921B02109217021092D8
:1030F00019021092180200EE10E0F80180818B7F17
:10310000808388818160888342E060E080E00E9463
:10311000C117E1EEF0E080818E7F8083E2EEF0E087
:10312000808181608083808188608083F8018081D4
:103130008E7F8083888180618883DF91CF911F910A
:103140000F910895E8EDF0E080818F7E8083E7EDB8
:10315000F0E080818160808384E082BF81E08093A1
:103160001A020C945F18E8EDF0E080818E7F808376
:103170001092E20008951092DA001092E100089592
:103180001F920F920FB60F9211242F933F934F93DC
:103190005F936F937F938F939F93AF93BF93EF93BF
:1031A000FF938091E10082FF0BC08091E20082FFDB
:1031B00007C08091E1008B7F8093E1000E942A1B71
:1031C0008091DA0080FF19C08091D80080FF15C07F
:1031D0008091DA008E7F8093DA008091D90080FFA1
:1031E00096C080E189BD82E189BD09B400FEFDCFB2
:1031F00081E080931B020E9425158091E10080FFF1
:1032000019C08091E20080FF15C08091E2008E7F9E
:103210008093E2008091E20080618093E2008091DF
:10322000D80080628093D80019BC85E080931B028F
:103230000E9437158091E10084FF2BC08091E2004D
:1032400084FF27C080E189BD82E189BD89B5982FBF
:10325000917080FFFBCF8091D8008F7D8093D80044
:103260008091E1008F7E8093E1008091E2008F7E6B
:103270008093E2008091E20081608093E20080917F
:103280001702882309F449C084E080931B020E943E
:1032900038158091E10083FF29C08091E20083FF0F
:1032A00025C08091E100877F8093E10082E08093D8
:1032B0001B02109217028091E1008E7F8093E10043
:1032C0008091E2008E7F8093E2008091E200806135
:1032D0008093E20042E060E080E00E94C1178091AC
:1032E000F00088608093F0000E943615FF91EF9106
:1032F000BF91AF919F918F917F916F915F914F910E
:103300003F912F910F900FBE0F901F90189519BCF1
:1033100010921B020E94331570CF8091E30087FD4D
:1033200093E090931B02B3CF1F920F920FB60F92B0
:1033300011242F933F934F935F936F937F938F93BA
:103340009F93AF93BF93CF93DF93EF93FF93D0916E
:10335000E900DF708091EC00C82FC17080FDC0E8EB
:103360001092E9008091F000877F8093F0007894BC
:103370000E94D8191092E9008091F0008860809333
:10338000F000CD2BCF70C093E900FF91EF91DF915A
:10339000CF91BF91AF919F918F917F916F915F91ED
:1033A0004F913F912F910F900FBE0F901F90189546
:1033B0001F93CF93DF93CDB7DEB7AA970FB6F894DC
:1033C000DEBF0FBECDBF8CE192E02091F100FC0189
:1033D0002193CF01F2E084329F07B9F70E94431591
:1033E0008091E80083FF1EC180911C0290911D0214
:1033F0009A3008F017C1E92FF0E0EE52F44E0C9429
:103400005A1B803899F0823809F00CC18091200253
:103410008F70873008F006C18093E9008091EB003F
:1034200085FB882780F91092E90006C08091180278
:1034300090911902911182609091E800977F90938A
:10344000E8008093F1001092F1008091E8008E77FF
:10345000E5C0882309F4D3C0823009F0E3C080912D
:103460001E028111D6C0809120028F702FEF280F8D
:10347000263008F0D7C08093E9002091EB0020FFB0
:10348000C8C0933031F48091EB0080628093EB00F0
:10349000C0C09091EB0090619093EB0021E030E090
:1034A00001C0220F8A95EAF72093EA001092EA0001
:1034B0008091EB008860EACF8111B4C010911E02A8
:1034C0001F778091E3008078812B8093E3008091C7
:1034D000E800877F8093E8000E94F5178091E8005C
:1034E00080FFFCCF8091E30080688093E30082E05E
:1034F000111183E080931B0295C08058823008F040
:1035000091C080911E0290911F028C3D23E0920792
:10351000A1F583E08A838AE289834FB7F894DE01BC
:10352000139620E03EE051E2E32FF0E05093570085
:10353000E49120FF03C0E295EF703F5FEF708E2FA4
:1035400090E0EA30C0F0C7968D939D932F5F2431B1
:1035500059F74FBF8091E800877F8093E8006AE2C7
:1035600070E0CE0101960E9404178091E8008B77ED
:103570008093E80057C0C096E7CF60912002709119
:103580002102AE014F5F5F4F0E944516BC01892B9F
:1035900009F448C09091E800977F9093E8008981F2
:1035A0009A810E946217E1CF8038E1F58091E800AE
:1035B000877F8093E800809117028093F10045CFC8
:1035C000811130C090911E02923060F58091E80028
:1035D000877F8093E800909317020E94F5178091EF
:1035E0001702882311F084E005C08091E30087FD75
:1035F000FACF81E080931B020E94391513C080919D
:103600001E02813079F481E0933009F080E08093EC
:1036100019021092E9008091E800877F8093E8000A
:103620000E94F5178091E80083FF0AC08091E800AE
:10363000877F8093E8008091EB0080628093EB00AD
:10364000AA960FB6F894DEBF0FBECDBFDF91CF9123
:103650001F9108950895CF9380911B028823A1F0B4
:10366000C091E900CF709091EC00892F817090FD9E
:1036700080E8C82B1092E9008091E80083FD0E9449
:10368000D819CF70C093E900CF91089597FB072E0A
:1036900016F4009407D077FD09D00E94601B07FC48
:1036A00005D03EF4909581959F4F08957095619552
:1036B0007F4F0895EE0FFF1F0590F491E02D0994C0
:1036C000AA1BBB1B51E107C0AA1FBB1FA617B70748
:1036D00010F0A61BB70B881F991F5A95A9F7809564
:1036E0009095BC01CD010895F999FECF92BD81BDA1
:1036F000F89A992780B50895A8E1B0E042E050E03B
:103700000C94A81B262FF999FECF92BD81BDF89A83
:10371000019700B4021639F01FBA20BD0FB6F89415
:10372000FA9AF99A0FBE08950396272F0E94831BD9
:103730000E94821B252F0E94831B242F0C94831B25
:103740000196272F0E94831B0C94821BDC01CB0166
:10375000FC01F999FECF06C0F2BDE1BDF89A3196A1
:1037600000B40D9241505040B8F70895F894FFCF3F
:10377000C00AC00A180B180B6A0BED0AED0AED0A15
:10378000860B120C210C210CE70CE70CF00CF00C52
:10379000F20CF00CF00CF00CE70CE70CF70CF00C52
:1037A000F00CF70C011A291A121B291A121B5C1AA9
:0837B0007D1A121BD41AE01A65
:1037B800F601B914F814BC14F414F01401E200E989
:1037C80000EA00B500B600B700CD008301CC008A3E
:1037D80001920194012102230224022502260227D4
:1037E800022A02B300B4006F007000818283F0F1F6
:1037F800F4979694666700FF0100010000FFFF0040
:1038080000010001FF00E200E900EA00B500B6008F
:10381800B700CD008301CC008A01920194012102F6
:10382800230224022502260227022A02B300B4003A
:083838006F0070008182830023
:00000001FF
